{
  "contractName": "EthyneEscrow",
  "abi": [
    {
      "constant": false,
      "inputs": [
        {
          "name": "_newOverrideFees",
          "type": "uint16"
        }
      ],
      "name": "setOverrideFees",
      "outputs": [],
      "payable": false,
      "stateMutability": "nonpayable",
      "type": "function"
    },
    {
      "constant": false,
      "inputs": [
        {
          "name": "_tradeID",
          "type": "bytes16"
        },
        {
          "name": "_buyer",
          "type": "address"
        },
        {
          "name": "_value",
          "type": "uint256"
        },
        {
          "name": "_ethyneFees",
          "type": "uint16"
        }
      ],
      "name": "createEscrow",
      "outputs": [],
      "payable": true,
      "stateMutability": "payable",
      "type": "function"
    },
    {
      "constant": false,
      "inputs": [
        {
          "name": "_newOwner",
          "type": "address"
        }
      ],
      "name": "setOwner",
      "outputs": [],
      "payable": false,
      "stateMutability": "nonpayable",
      "type": "function"
    },
    {
      "constant": true,
      "inputs": [
        {
          "name": "",
          "type": "bytes32"
        }
      ],
      "name": "escrows",
      "outputs": [
        {
          "name": "_seller",
          "type": "address"
        },
        {
          "name": "_buyer",
          "type": "address"
        },
        {
          "name": "_tradeID",
          "type": "bytes16"
        },
        {
          "name": "_isActive",
          "type": "bool"
        },
        {
          "name": "_value",
          "type": "uint256"
        },
        {
          "name": "_ethyneFees",
          "type": "uint16"
        }
      ],
      "payable": false,
      "stateMutability": "view",
      "type": "function"
    },
    {
      "constant": true,
      "inputs": [],
      "name": "getRevenue",
      "outputs": [
        {
          "name": "",
          "type": "uint256"
        }
      ],
      "payable": false,
      "stateMutability": "view",
      "type": "function"
    },
    {
      "constant": false,
      "inputs": [
        {
          "name": "_to",
          "type": "address"
        },
        {
          "name": "_amount",
          "type": "uint256"
        }
      ],
      "name": "withdrawRevenue",
      "outputs": [],
      "payable": false,
      "stateMutability": "nonpayable",
      "type": "function"
    },
    {
      "constant": false,
      "inputs": [
        {
          "name": "_tradeID",
          "type": "bytes16"
        },
        {
          "name": "_buyer",
          "type": "address"
        },
        {
          "name": "_value",
          "type": "uint256"
        },
        {
          "name": "_ethyneFees",
          "type": "uint16"
        }
      ],
      "name": "release",
      "outputs": [],
      "payable": false,
      "stateMutability": "nonpayable",
      "type": "function"
    },
    {
      "inputs": [],
      "payable": false,
      "stateMutability": "nonpayable",
      "type": "constructor"
    },
    {
      "anonymous": false,
      "inputs": [
        {
          "indexed": false,
          "name": "_hashed",
          "type": "bytes32"
        }
      ],
      "name": "LogCreated",
      "type": "event"
    }
  ],
  "bytecode": "0x6060604052341561000f57600080fd5b336000806101000a81548173ffffffffffffffffffffffffffffffffffffffff021916908373ffffffffffffffffffffffffffffffffffffffff16021790555060006003819055506000600260006101000a81548160ff021916908315150217905550610bfc806100816000396000f300606060405260043610610083576000357c0100000000000000000000000000000000000000000000000000000000900463ffffffff16806307ce467d146100885780630846dd7c146100af57806313af40351461010f5780632d83549c1461014857806348d7d9eb146102305780638b63c26714610259578063e8499fe81461029b575b600080fd5b341561009357600080fd5b6100ad600480803561ffff16906020019091905050610306565b005b61010d60048080356fffffffffffffffffffffffffffffffff191690602001909190803573ffffffffffffffffffffffffffffffffffffffff1690602001909190803590602001909190803561ffff1690602001909190505061036f565b005b341561011a57600080fd5b610146600480803573ffffffffffffffffffffffffffffffffffffffff169060200190919050506106b4565b005b341561015357600080fd5b61016d600480803560001916906020019091905050610752565b604051808773ffffffffffffffffffffffffffffffffffffffff1673ffffffffffffffffffffffffffffffffffffffff1681526020018673ffffffffffffffffffffffffffffffffffffffff1673ffffffffffffffffffffffffffffffffffffffff168152602001856fffffffffffffffffffffffffffffffff19166fffffffffffffffffffffffffffffffff19168152602001841515151581526020018381526020018261ffff1661ffff168152602001965050505050505060405180910390f35b341561023b57600080fd5b610243610806565b6040518082815260200191505060405180910390f35b341561026457600080fd5b610299600480803573ffffffffffffffffffffffffffffffffffffffff1690602001909190803590602001909190505061086b565b005b34156102a657600080fd5b61030460048080356fffffffffffffffffffffffffffffffff191690602001909190803573ffffffffffffffffffffffffffffffffffffffff1690602001909190803590602001909190803561ffff16906020019091905050610925565b005b6000809054906101000a900473ffffffffffffffffffffffffffffffffffffffff1673ffffffffffffffffffffffffffffffffffffffff163373ffffffffffffffffffffffffffffffffffffffff1614151561036157600080fd5b8061ffff1660038190555050565b6000843385858560405180866fffffffffffffffffffffffffffffffff19166fffffffffffffffffffffffffffffffff191681526010018573ffffffffffffffffffffffffffffffffffffffff1673ffffffffffffffffffffffffffffffffffffffff166c010000000000000000000000000281526014018473ffffffffffffffffffffffffffffffffffffffff1673ffffffffffffffffffffffffffffffffffffffff166c010000000000000000000000000281526014018381526020018261ffff1661ffff167e01000000000000000000000000000000000000000000000000000000000000028152600201955050505050506040518091039020905060046000826000191660001916815260200190815260200160002060020160109054906101000a900460ff161515156104a657600080fd5b6000341180156104b557508234145b15156104c057600080fd5b60c0604051908101604052803373ffffffffffffffffffffffffffffffffffffffff1681526020018573ffffffffffffffffffffffffffffffffffffffff168152602001866fffffffffffffffffffffffffffffffff191681526020016001151581526020018481526020018361ffff1681525060046000836000191660001916815260200190815260200160002060008201518160000160006101000a81548173ffffffffffffffffffffffffffffffffffffffff021916908373ffffffffffffffffffffffffffffffffffffffff16021790555060208201518160010160006101000a81548173ffffffffffffffffffffffffffffffffffffffff021916908373ffffffffffffffffffffffffffffffffffffffff16021790555060408201518160020160006101000a8154816fffffffffffffffffffffffffffffffff02191690837001000000000000000000000000000000009004021790555060608201518160020160106101000a81548160ff0219169083151502179055506080820151816003015560a08201518160040160006101000a81548161ffff021916908361ffff1602179055509050507f7f08a852757d36a52fdb8382e7aae098921e16ed1b9580b956b8c25db512ee5d8160405180826000191660001916815260200191505060405180910390a15050505050565b6000809054906101000a900473ffffffffffffffffffffffffffffffffffffffff1673ffffffffffffffffffffffffffffffffffffffff163373ffffffffffffffffffffffffffffffffffffffff1614151561070f57600080fd5b806000806101000a81548173ffffffffffffffffffffffffffffffffffffffff021916908373ffffffffffffffffffffffffffffffffffffffff16021790555050565b60046020528060005260406000206000915090508060000160009054906101000a900473ffffffffffffffffffffffffffffffffffffffff16908060010160009054906101000a900473ffffffffffffffffffffffffffffffffffffffff16908060020160009054906101000a900470010000000000000000000000000000000002908060020160109054906101000a900460ff16908060030154908060040160009054906101000a900461ffff16905086565b60008060009054906101000a900473ffffffffffffffffffffffffffffffffffffffff1673ffffffffffffffffffffffffffffffffffffffff163373ffffffffffffffffffffffffffffffffffffffff1614151561086357600080fd5b600154905090565b6000809054906101000a900473ffffffffffffffffffffffffffffffffffffffff1673ffffffffffffffffffffffffffffffffffffffff163373ffffffffffffffffffffffffffffffffffffffff161415156108c657600080fd5b600154811015156108d657600080fd5b80600154036001819055508173ffffffffffffffffffffffffffffffffffffffff166108fc829081150290604051600060405180830381858888f19350505050151561092157600080fd5b5050565b6000843385858560405180866fffffffffffffffffffffffffffffffff19166fffffffffffffffffffffffffffffffff191681526010018573ffffffffffffffffffffffffffffffffffffffff1673ffffffffffffffffffffffffffffffffffffffff166c010000000000000000000000000281526014018473ffffffffffffffffffffffffffffffffffffffff1673ffffffffffffffffffffffffffffffffffffffff166c010000000000000000000000000281526014018381526020018261ffff1661ffff167e01000000000000000000000000000000000000000000000000000000000000028152600201955050505050506040518091039020905060046000826000191660001916815260200190815260200160002060020160109054906101000a900460ff161515610a5b57600080fd5b600060046000836000191660001916815260200190815260200160002060020160106101000a81548160ff021916908315150217905550610b2960046000836000191660001916815260200190815260200160002060010160009054906101000a900473ffffffffffffffffffffffffffffffffffffffff166004600084600019166000191681526020019081526020016000206003015460046000856000191660001916815260200190815260200160002060040160009054906101000a900461ffff1661ffff16610b31565b505050505050565b60008060009050600260009054906101000a900460ff161515610b7557612710838502811515610b5d57fe5b04905083818503101515610b7057600080fd5b610b7b565b60035490505b60015481016001819055508473ffffffffffffffffffffffffffffffffffffffff166108fc8286039081150290604051600060405180830381858888f193505050501515610bc857600080fd5b5093925050505600a165627a7a723058208be061bc63c5cadbec58356f30cb6ed3ee324ae08ec8b6748465a24af8520a1c0029",
  "source": "pragma solidity ^0.4.18;\n\ncontract EthyneEscrow{\n  address owner;\n  uint256 ethyneRevenue;\n  bool isOverrideFees;\n  uint overrideFees;\n\n  struct Escrow {\n    address _seller;\n    address _buyer;\n    bytes16 _tradeID;\n    bool _isActive;\n    uint _value;\n    uint16 _ethyneFees;\n  }\n\n  mapping (bytes32 => Escrow) public escrows;\n\n  modifier onlyOwner(){\n    require(msg.sender == owner);\n    _;\n  }\n\n  //events\n  event LogCreated(\n    bytes32 _hashed\n    );\n\n  // constructor for escrow\n  // setup the owner of the contract\n  function EthyneEscrow() public{\n    owner = msg.sender;\n    overrideFees = 0;\n    isOverrideFees = false;\n  }\n\n  function createEscrow(\n    bytes16 _tradeID,\n    address _buyer,\n    uint256 _value,\n    uint16 _ethyneFees\n    ) payable public {\n      bytes32 _hashed = keccak256(_tradeID, msg.sender, _buyer, _value, _ethyneFees);\n      require(!escrows[_hashed]._isActive);\n      require(msg.value > 0 && msg.value == _value);\n\n      escrows[_hashed] = Escrow(\n        msg.sender,\n        _buyer,\n        _tradeID,\n        true,\n        _value,\n        _ethyneFees\n      );\n\n      LogCreated(_hashed);\n  }\n\n  function release(\n    bytes16 _tradeID,\n    address _buyer,\n    uint256 _value,\n    uint16 _ethyneFees\n    ) public {\n      bytes32 _hashed = keccak256(_tradeID, msg.sender, _buyer, _value, _ethyneFees);\n      require(escrows[_hashed]._isActive);\n      escrows[_hashed]._isActive = false;\n      transferToBuyerWithFees(escrows[_hashed]._buyer, escrows[_hashed]._value, escrows[_hashed]._ethyneFees);\n    }\n\n  function transferToBuyerWithFees(address _to, uint256 _value, uint _fees) private returns (uint256){\n      uint256 _finalFees = 0;\n      if(!isOverrideFees){\n        _finalFees = (_value * _fees/10000);\n        require(_value - _finalFees < _value); // prevent the case that not the value not enough for fees.\n      } else {\n        _finalFees = overrideFees;\n      }\n      ethyneRevenue = _finalFees + ethyneRevenue;\n      _to.transfer(_value - _finalFees);\n  }\n\n  // the function below this line will be related to the company\n\n  function setOwner(address _newOwner) onlyOwner external {\n    //Change the owner of the contract\n    //Can be called by owner only\n    owner = _newOwner;\n  }\n\n  // withdraw the revenue from trading to specific account\n  function getRevenue() onlyOwner view returns(uint256) {\n    return ethyneRevenue;\n  }\n\n  function withdrawRevenue(address _to, uint256 _amount) onlyOwner {\n    require(_amount < ethyneRevenue);\n    ethyneRevenue = ethyneRevenue - _amount;\n    _to.transfer(_amount);\n  }\n\n  // Change the overrideFees when we have a promo/or in beta test\n  function setOverrideFees(uint16 _newOverrideFees) onlyOwner {\n    overrideFees = _newOverrideFees;\n  }\n\n}\n",
  "sourcePath": "/Users/adirut/Ethyne/contracts/EthyneEscrow.sol",
  "compiler": {
    "name": "solc",
    "version": "0.4.18+commit.9cf6e910.Emscripten.clang"
  },
  "schemaVersion": "1.0.1",
  "updatedAt": "2018-03-22T12:47:41.702Z"
}