{
  "contractName": "EthyneEscrow",
  "abi": [
    {
      "constant": false,
      "inputs": [
        {
          "name": "_newOwner",
          "type": "address"
        }
      ],
      "name": "setOwner",
      "outputs": [],
      "payable": false,
      "stateMutability": "nonpayable",
      "type": "function"
    },
    {
      "constant": false,
      "inputs": [
        {
          "name": "_tradeID",
          "type": "bytes16"
        },
        {
          "name": "_buyer",
          "type": "address"
        },
        {
          "name": "_value",
          "type": "uint256"
        }
      ],
      "name": "createEscrow",
      "outputs": [],
      "payable": true,
      "stateMutability": "payable",
      "type": "function"
    },
    {
      "constant": false,
      "inputs": [
        {
          "name": "_to",
          "type": "address"
        },
        {
          "name": "_amount",
          "type": "uint256"
        }
      ],
      "name": "withdrawRevenue",
      "outputs": [],
      "payable": false,
      "stateMutability": "nonpayable",
      "type": "function"
    },
    {
      "inputs": [],
      "payable": false,
      "stateMutability": "nonpayable",
      "type": "constructor"
    }
  ],
  "bytecode": "0x6060604052341561000f57600080fd5b336000806101000a81548173ffffffffffffffffffffffffffffffffffffffff021916908373ffffffffffffffffffffffffffffffffffffffff1602179055506104318061005e6000396000f300606060405260043610610057576000357c0100000000000000000000000000000000000000000000000000000000900463ffffffff16806313af40351461005c57806314853e9e146100955780638b63c267146100e8575b600080fd5b341561006757600080fd5b610093600480803573ffffffffffffffffffffffffffffffffffffffff1690602001909190505061012a565b005b6100e660048080356fffffffffffffffffffffffffffffffff191690602001909190803573ffffffffffffffffffffffffffffffffffffffff169060200190919080359060200190919050506101c8565b005b34156100f357600080fd5b610128600480803573ffffffffffffffffffffffffffffffffffffffff1690602001909190803590602001909190505061034b565b005b6000809054906101000a900473ffffffffffffffffffffffffffffffffffffffff1673ffffffffffffffffffffffffffffffffffffffff163373ffffffffffffffffffffffffffffffffffffffff1614151561018557600080fd5b806000806101000a81548173ffffffffffffffffffffffffffffffffffffffff021916908373ffffffffffffffffffffffffffffffffffffffff16021790555050565b6000341180156101d757508034145b15156101e257600080fd5b6002600081548092919060010191905055506080604051908101604052803373ffffffffffffffffffffffffffffffffffffffff1681526020018373ffffffffffffffffffffffffffffffffffffffff168152602001846fffffffffffffffffffffffffffffffff191681526020018281525060036000600254815260200190815260200160002060008201518160000160006101000a81548173ffffffffffffffffffffffffffffffffffffffff021916908373ffffffffffffffffffffffffffffffffffffffff16021790555060208201518160010160006101000a81548173ffffffffffffffffffffffffffffffffffffffff021916908373ffffffffffffffffffffffffffffffffffffffff16021790555060408201518160020160006101000a8154816fffffffffffffffffffffffffffffffff02191690837001000000000000000000000000000000009004021790555060608201518160030155905050505050565b6000809054906101000a900473ffffffffffffffffffffffffffffffffffffffff1673ffffffffffffffffffffffffffffffffffffffff163373ffffffffffffffffffffffffffffffffffffffff161415156103a657600080fd5b600154811015156103b657600080fd5b80600154036001819055508173ffffffffffffffffffffffffffffffffffffffff166108fc829081150290604051600060405180830381858888f19350505050151561040157600080fd5b50505600a165627a7a723058209ecba00ba3d0130ee31011bdf2a38e55e20a6f5681e5f9f0647422f80a1c2fa30029",
  "source": "pragma solidity ^0.4.18;\n\ncontract EthyneEscrow{\n  address owner;\n  uint256 ethyneRevenue;\n  uint escrowCounter;\n\n  struct Escrow {\n    address seller;\n    address buyer;\n    bytes16 _tradeID;\n    uint _value;\n  }\n\n  mapping (uint => Escrow) escrows;\n\n  modifier onlyOwner(){\n    require(msg.sender == owner);\n    _;\n  }\n\n  // constructor for escrow\n  // setup the owner of the contract\n  function EthyneEscrow() public{\n    owner = msg.sender;\n  }\n\n  function createEscrow(\n    bytes16 _tradeID,\n    address _buyer,\n    uint256 _value\n    ) payable public {\n      require(msg.value > 0 && msg.value == _value);\n\n      escrowCounter++;\n      escrows[escrowCounter] = Escrow(\n        msg.sender,\n        _buyer,\n        _tradeID,\n        _value\n      );\n  }\n\n  // the function below this line will be related to the company\n\n  function setOwner(address _newOwner) onlyOwner external {\n    //Change the owner of the contract\n    //Can be called by owner only\n    owner = _newOwner;\n  }\n\n  // withdraw the revenue from trading to specific account\n  function withdrawRevenue(address _to, uint256 _amount) onlyOwner public {\n    require(_amount < ethyneRevenue);\n    ethyneRevenue = ethyneRevenue - _amount;\n    _to.transfer(_amount);\n  }\n\n}\n",
  "sourcePath": "/Users/adirut/Ethyne/contracts/EthyneEscrow.sol",
  "compiler": {
    "name": "solc",
    "version": "0.4.18+commit.9cf6e910.Emscripten.clang"
  },
  "schemaVersion": "1.0.1",
  "updatedAt": "2018-03-15T04:23:10.197Z"
}