{
  "contractName": "EthyneEscrow",
  "abi": [
    {
      "constant": false,
      "inputs": [
        {
          "name": "_tradeID",
          "type": "bytes16"
        },
        {
          "name": "_seller",
          "type": "address"
        },
        {
          "name": "_buyer",
          "type": "address"
        },
        {
          "name": "_value",
          "type": "uint256"
        },
        {
          "name": "_stage",
          "type": "uint8"
        }
      ],
      "name": "buyerCancelTrade",
      "outputs": [],
      "payable": false,
      "stateMutability": "nonpayable",
      "type": "function"
    },
    {
      "constant": false,
      "inputs": [
        {
          "name": "_newOverrideFees",
          "type": "uint16"
        }
      ],
      "name": "setOverrideFees",
      "outputs": [],
      "payable": false,
      "stateMutability": "nonpayable",
      "type": "function"
    },
    {
      "constant": false,
      "inputs": [
        {
          "name": "_newOwner",
          "type": "address"
        }
      ],
      "name": "setOwner",
      "outputs": [],
      "payable": false,
      "stateMutability": "nonpayable",
      "type": "function"
    },
    {
      "constant": false,
      "inputs": [
        {
          "name": "_tradeID",
          "type": "bytes16"
        },
        {
          "name": "_buyer",
          "type": "address"
        },
        {
          "name": "_value",
          "type": "uint256"
        }
      ],
      "name": "createEscrow",
      "outputs": [],
      "payable": true,
      "stateMutability": "payable",
      "type": "function"
    },
    {
      "constant": true,
      "inputs": [],
      "name": "overrideFees",
      "outputs": [
        {
          "name": "",
          "type": "uint256"
        }
      ],
      "payable": false,
      "stateMutability": "view",
      "type": "function"
    },
    {
      "constant": true,
      "inputs": [
        {
          "name": "",
          "type": "bytes32"
        }
      ],
      "name": "escrows",
      "outputs": [
        {
          "name": "_seller",
          "type": "address"
        },
        {
          "name": "_buyer",
          "type": "address"
        },
        {
          "name": "_tradeID",
          "type": "bytes16"
        },
        {
          "name": "_isActive",
          "type": "bool"
        },
        {
          "name": "_value",
          "type": "uint256"
        }
      ],
      "payable": false,
      "stateMutability": "view",
      "type": "function"
    },
    {
      "constant": true,
      "inputs": [],
      "name": "isOverrideFees",
      "outputs": [
        {
          "name": "",
          "type": "bool"
        }
      ],
      "payable": false,
      "stateMutability": "view",
      "type": "function"
    },
    {
      "constant": true,
      "inputs": [],
      "name": "getRevenue",
      "outputs": [
        {
          "name": "",
          "type": "uint256"
        }
      ],
      "payable": false,
      "stateMutability": "view",
      "type": "function"
    },
    {
      "constant": false,
      "inputs": [
        {
          "name": "_tradeID",
          "type": "bytes16"
        },
        {
          "name": "_buyer",
          "type": "address"
        },
        {
          "name": "_value",
          "type": "uint256"
        }
      ],
      "name": "release",
      "outputs": [],
      "payable": false,
      "stateMutability": "nonpayable",
      "type": "function"
    },
    {
      "constant": true,
      "inputs": [],
      "name": "relayer",
      "outputs": [
        {
          "name": "",
          "type": "address"
        }
      ],
      "payable": false,
      "stateMutability": "view",
      "type": "function"
    },
    {
      "constant": false,
      "inputs": [
        {
          "name": "_to",
          "type": "address"
        },
        {
          "name": "_amount",
          "type": "uint256"
        }
      ],
      "name": "withdrawRevenue",
      "outputs": [],
      "payable": false,
      "stateMutability": "nonpayable",
      "type": "function"
    },
    {
      "constant": true,
      "inputs": [],
      "name": "owner",
      "outputs": [
        {
          "name": "",
          "type": "address"
        }
      ],
      "payable": false,
      "stateMutability": "view",
      "type": "function"
    },
    {
      "constant": true,
      "inputs": [],
      "name": "ethyneCollectedFees",
      "outputs": [
        {
          "name": "",
          "type": "uint256"
        }
      ],
      "payable": false,
      "stateMutability": "view",
      "type": "function"
    },
    {
      "constant": false,
      "inputs": [
        {
          "name": "_tradeID",
          "type": "bytes16"
        },
        {
          "name": "_seller",
          "type": "address"
        },
        {
          "name": "_buyer",
          "type": "address"
        },
        {
          "name": "_value",
          "type": "uint256"
        },
        {
          "name": "_stage",
          "type": "uint8"
        }
      ],
      "name": "sellerCancelTrade",
      "outputs": [],
      "payable": false,
      "stateMutability": "nonpayable",
      "type": "function"
    },
    {
      "inputs": [],
      "payable": false,
      "stateMutability": "nonpayable",
      "type": "constructor"
    },
    {
      "anonymous": false,
      "inputs": [
        {
          "indexed": false,
          "name": "_hashed",
          "type": "bytes32"
        }
      ],
      "name": "LogCreated",
      "type": "event"
    }
  ],
  "bytecode": "0x6060604052341561000f57600080fd5b336000806101000a81548173ffffffffffffffffffffffffffffffffffffffff021916908373ffffffffffffffffffffffffffffffffffffffff16021790555060006004819055506000600360006101000a81548160ff0219169083151502179055506117ad806100816000396000f3006060604052600436106100d0576000357c0100000000000000000000000000000000000000000000000000000000900463ffffffff16806301c9c77d146100d557806307ce467d1461015e57806313af40351461018557806314853e9e146101be5780631f7ca38a146102115780632d83549c1461023a578063447405271461031357806348d7d9eb146103405780636bc1c605146103695780638406c079146103c75780638b63c2671461041c5780638da5cb5b1461045e5780639dfa5a25146104b3578063f8230782146104dc575b600080fd5b34156100e057600080fd5b61015c60048080356fffffffffffffffffffffffffffffffff191690602001909190803573ffffffffffffffffffffffffffffffffffffffff1690602001909190803573ffffffffffffffffffffffffffffffffffffffff1690602001909190803590602001909190803560ff16906020019091905050610565565b005b341561016957600080fd5b610183600480803561ffff16906020019091905050610955565b005b341561019057600080fd5b6101bc600480803573ffffffffffffffffffffffffffffffffffffffff169060200190919050506109d1565b005b61020f60048080356fffffffffffffffffffffffffffffffff191690602001909190803573ffffffffffffffffffffffffffffffffffffffff16906020019091908035906020019091905050610a6f565b005b341561021c57600080fd5b610224610d94565b6040518082815260200191505060405180910390f35b341561024557600080fd5b61025f600480803560001916906020019091905050610d9a565b604051808673ffffffffffffffffffffffffffffffffffffffff1673ffffffffffffffffffffffffffffffffffffffff1681526020018573ffffffffffffffffffffffffffffffffffffffff1673ffffffffffffffffffffffffffffffffffffffff168152602001846fffffffffffffffffffffffffffffffff19166fffffffffffffffffffffffffffffffff19168152602001831515151581526020018281526020019550505050505060405180910390f35b341561031e57600080fd5b610326610e3a565b604051808215151515815260200191505060405180910390f35b341561034b57600080fd5b610353610e4d565b6040518082815260200191505060405180910390f35b341561037457600080fd5b6103c560048080356fffffffffffffffffffffffffffffffff191690602001909190803573ffffffffffffffffffffffffffffffffffffffff16906020019091908035906020019091905050610eb2565b005b34156103d257600080fd5b6103da611107565b604051808273ffffffffffffffffffffffffffffffffffffffff1673ffffffffffffffffffffffffffffffffffffffff16815260200191505060405180910390f35b341561042757600080fd5b61045c600480803573ffffffffffffffffffffffffffffffffffffffff1690602001909190803590602001909190505061112d565b005b341561046957600080fd5b6104716111f7565b604051808273ffffffffffffffffffffffffffffffffffffffff1673ffffffffffffffffffffffffffffffffffffffff16815260200191505060405180910390f35b34156104be57600080fd5b6104c661121c565b6040518082815260200191505060405180910390f35b34156104e757600080fd5b61056360048080356fffffffffffffffffffffffffffffffff191690602001909190803573ffffffffffffffffffffffffffffffffffffffff1690602001909190803573ffffffffffffffffffffffffffffffffffffffff1690602001909190803590602001909190803560ff16906020019091905050611222565b005b60008585858560405180856fffffffffffffffffffffffffffffffff19166fffffffffffffffffffffffffffffffff191681526010018473ffffffffffffffffffffffffffffffffffffffff1673ffffffffffffffffffffffffffffffffffffffff166c010000000000000000000000000281526014018373ffffffffffffffffffffffffffffffffffffffff1673ffffffffffffffffffffffffffffffffffffffff166c010000000000000000000000000281526014018281526020019450505050506040518091039020905060056000826000191660001916815260200190815260200160002060020160109054906101000a900460ff16151561066a57600080fd5b600160ff168260ff1614156107ed57600160ff168260ff1614151561068e57600080fd5b3373ffffffffffffffffffffffffffffffffffffffff1660056000836000191660001916815260200190815260200160002060010160009054906101000a900473ffffffffffffffffffffffffffffffffffffffff1673ffffffffffffffffffffffffffffffffffffffff1614151561070657600080fd5b600060056000836000191660001916815260200190815260200160002060020160106101000a81548160ff021916908315150217905550600560008260001916600019168152602001908152602001600020600080820160006101000a81549073ffffffffffffffffffffffffffffffffffffffff02191690556001820160006101000a81549073ffffffffffffffffffffffffffffffffffffffff02191690556002820160006101000a8154906fffffffffffffffffffffffffffffffff02191690556002820160106101000a81549060ff021916905560038201600090555050610941565b600260ff168260ff1614151561080257600080fd5b600160009054906101000a900473ffffffffffffffffffffffffffffffffffffffff1673ffffffffffffffffffffffffffffffffffffffff163373ffffffffffffffffffffffffffffffffffffffff1614151561085e57600080fd5b600060056000836000191660001916815260200190815260200160002060020160106101000a81548160ff021916908315150217905550600560008260001916600019168152602001908152602001600020600080820160006101000a81549073ffffffffffffffffffffffffffffffffffffffff02191690556001820160006101000a81549073ffffffffffffffffffffffffffffffffffffffff02191690556002820160006101000a8154906fffffffffffffffffffffffffffffffff02191690556002820160106101000a81549060ff0219169055600382016000905550505b61094d8584600a611612565b505050505050565b6000809054906101000a900473ffffffffffffffffffffffffffffffffffffffff1673ffffffffffffffffffffffffffffffffffffffff163373ffffffffffffffffffffffffffffffffffffffff161415156109b057600080fd5b8061ffff16600a1115156109c357600080fd5b8061ffff1660048190555050565b6000809054906101000a900473ffffffffffffffffffffffffffffffffffffffff1673ffffffffffffffffffffffffffffffffffffffff163373ffffffffffffffffffffffffffffffffffffffff16141515610a2c57600080fd5b806000806101000a81548173ffffffffffffffffffffffffffffffffffffffff021916908373ffffffffffffffffffffffffffffffffffffffff16021790555050565b6000803391508482858560405180856fffffffffffffffffffffffffffffffff19166fffffffffffffffffffffffffffffffff191681526010018473ffffffffffffffffffffffffffffffffffffffff1673ffffffffffffffffffffffffffffffffffffffff166c010000000000000000000000000281526014018373ffffffffffffffffffffffffffffffffffffffff1673ffffffffffffffffffffffffffffffffffffffff166c01000000000000000000000000028152601401828152602001945050505050604051809103902090508173ffffffffffffffffffffffffffffffffffffffff163373ffffffffffffffffffffffffffffffffffffffff16141515610b7b57600080fd5b60056000826000191660001916815260200190815260200160002060020160109054906101000a900460ff16151515610bb357600080fd5b600034118015610bc257508234145b1515610bcd57600080fd5b60a0604051908101604052803373ffffffffffffffffffffffffffffffffffffffff1681526020018573ffffffffffffffffffffffffffffffffffffffff168152602001866fffffffffffffffffffffffffffffffff191681526020016001151581526020018481525060056000836000191660001916815260200190815260200160002060008201518160000160006101000a81548173ffffffffffffffffffffffffffffffffffffffff021916908373ffffffffffffffffffffffffffffffffffffffff16021790555060208201518160010160006101000a81548173ffffffffffffffffffffffffffffffffffffffff021916908373ffffffffffffffffffffffffffffffffffffffff16021790555060408201518160020160006101000a8154816fffffffffffffffffffffffffffffffff02191690837001000000000000000000000000000000009004021790555060608201518160020160106101000a81548160ff021916908315150217905550608082015181600301559050507f7f08a852757d36a52fdb8382e7aae098921e16ed1b9580b956b8c25db512ee5d8160405180826000191660001916815260200191505060405180910390a15050505050565b60045481565b60056020528060005260406000206000915090508060000160009054906101000a900473ffffffffffffffffffffffffffffffffffffffff16908060010160009054906101000a900473ffffffffffffffffffffffffffffffffffffffff16908060020160009054906101000a900470010000000000000000000000000000000002908060020160109054906101000a900460ff16908060030154905085565b600360009054906101000a900460ff1681565b60008060009054906101000a900473ffffffffffffffffffffffffffffffffffffffff1673ffffffffffffffffffffffffffffffffffffffff163373ffffffffffffffffffffffffffffffffffffffff16141515610eaa57600080fd5b600254905090565b60008333848460405180856fffffffffffffffffffffffffffffffff19166fffffffffffffffffffffffffffffffff191681526010018473ffffffffffffffffffffffffffffffffffffffff1673ffffffffffffffffffffffffffffffffffffffff166c010000000000000000000000000281526014018373ffffffffffffffffffffffffffffffffffffffff1673ffffffffffffffffffffffffffffffffffffffff166c010000000000000000000000000281526014018281526020019450505050506040518091039020905060056000826000191660001916815260200190815260200160002060020160109054906101000a900460ff161515610fb757600080fd5b61101f60056000836000191660001916815260200190815260200160002060010160009054906101000a900473ffffffffffffffffffffffffffffffffffffffff1660056000846000191660001916815260200190815260200160002060030154600a611612565b600060056000836000191660001916815260200190815260200160002060020160106101000a81548160ff021916908315150217905550600560008260001916600019168152602001908152602001600020600080820160006101000a81549073ffffffffffffffffffffffffffffffffffffffff02191690556001820160006101000a81549073ffffffffffffffffffffffffffffffffffffffff02191690556002820160006101000a8154906fffffffffffffffffffffffffffffffff02191690556002820160106101000a81549060ff02191690556003820160009055505050505050565b600160009054906101000a900473ffffffffffffffffffffffffffffffffffffffff1681565b6000809054906101000a900473ffffffffffffffffffffffffffffffffffffffff1673ffffffffffffffffffffffffffffffffffffffff163373ffffffffffffffffffffffffffffffffffffffff1614151561118857600080fd5b6002548110151561119857600080fd5b6111ad816002546116f490919063ffffffff16565b6002819055508173ffffffffffffffffffffffffffffffffffffffff166108fc829081150290604051600060405180830381858888f1935050505015156111f357600080fd5b5050565b6000809054906101000a900473ffffffffffffffffffffffffffffffffffffffff1681565b60025481565b60008585858560405180856fffffffffffffffffffffffffffffffff19166fffffffffffffffffffffffffffffffff191681526010018473ffffffffffffffffffffffffffffffffffffffff1673ffffffffffffffffffffffffffffffffffffffff166c010000000000000000000000000281526014018373ffffffffffffffffffffffffffffffffffffffff1673ffffffffffffffffffffffffffffffffffffffff166c010000000000000000000000000281526014018281526020019450505050506040518091039020905060056000826000191660001916815260200190815260200160002060020160109054906101000a900460ff16151561132757600080fd5b600160ff168260ff1614156114aa57600160ff168260ff1614151561134b57600080fd5b3373ffffffffffffffffffffffffffffffffffffffff1660056000836000191660001916815260200190815260200160002060000160009054906101000a900473ffffffffffffffffffffffffffffffffffffffff1673ffffffffffffffffffffffffffffffffffffffff161415156113c357600080fd5b600060056000836000191660001916815260200190815260200160002060020160106101000a81548160ff021916908315150217905550600560008260001916600019168152602001908152602001600020600080820160006101000a81549073ffffffffffffffffffffffffffffffffffffffff02191690556001820160006101000a81549073ffffffffffffffffffffffffffffffffffffffff02191690556002820160006101000a8154906fffffffffffffffffffffffffffffffff02191690556002820160106101000a81549060ff0219169055600382016000905550506115fe565b600260ff168260ff161415156114bf57600080fd5b600160009054906101000a900473ffffffffffffffffffffffffffffffffffffffff1673ffffffffffffffffffffffffffffffffffffffff163373ffffffffffffffffffffffffffffffffffffffff1614151561151b57600080fd5b600060056000836000191660001916815260200190815260200160002060020160106101000a81548160ff021916908315150217905550600560008260001916600019168152602001908152602001600020600080820160006101000a81549073ffffffffffffffffffffffffffffffffffffffff02191690556001820160006101000a81549073ffffffffffffffffffffffffffffffffffffffff02191690556002820160006101000a8154906fffffffffffffffffffffffffffffffff02191690556002820160106101000a81549060ff0219169055600382016000905550505b61160a8584600a611612565b505050505050565b6000809050600360009054906101000a900460ff16151561167b57611654612710611646848661170d90919063ffffffff16565b61174890919063ffffffff16565b90508261166a82856116f490919063ffffffff16565b10151561167657600080fd5b611681565b60045490505b6116966002548261176390919063ffffffff16565b6002819055508373ffffffffffffffffffffffffffffffffffffffff166108fc6116c983866116f490919063ffffffff16565b9081150290604051600060405180830381858888f1935050505015156116ee57600080fd5b50505050565b600082821115151561170257fe5b818303905092915050565b60008060008414156117225760009150611741565b828402905082848281151561173357fe5b0414151561173d57fe5b8091505b5092915050565b600080828481151561175657fe5b0490508091505092915050565b600080828401905083811015151561177757fe5b80915050929150505600a165627a7a723058201e5eeecc16815ded172b1cba20aa71594886a3b1ab7c3655775a3344972b228f0029",
  "source": "pragma solidity ^0.4.18;\n\n/**\n * @title SafeMath\n * @dev Math operations with safety checks that throw on error\n */\nlibrary SafeMath {\n  function mul(uint256 a, uint256 b) internal pure returns (uint256) {\n    if (a == 0) {\n      return 0;\n    }\n    uint256 c = a * b;\n    assert(c / a == b);\n    return c;\n  }\n\n  function div(uint256 a, uint256 b) internal pure returns (uint256) {\n    // assert(b > 0); // Solidity automatically throws when dividing by 0\n    uint256 c = a / b;\n    // assert(a == b * c + a % b); // There is no case in which this doesn't hold\n    return c;\n  }\n\n  function sub(uint256 a, uint256 b) internal pure returns (uint256) {\n    assert(b <= a);\n    return a - b;\n  }\n\n  function add(uint256 a, uint256 b) internal pure returns (uint256) {\n    uint256 c = a + b;\n    assert(c >= a);\n    return c;\n  }\n}\n\ncontract EthyneEscrow{\n  using SafeMath for uint;\n  using SafeMath for uint256;\n\n  address public owner;\n  address public relayer;\n  uint256 public ethyneCollectedFees;\n  bool public  isOverrideFees;\n  uint public overrideFees;\n\n  uint constant ETHYNE_FEES = 10;\n  uint8 constant STAGE_SELLER_CREATE_ESCROW = 0x01;\n  uint8 constant STAGE_BUYER_CONFIRM_TX = 0x02;\n\n  struct Escrow {\n    address _seller;\n    address _buyer;\n    bytes16 _tradeID;\n    bool _isActive;\n    uint _value;\n  }\n\n  mapping (bytes32 => Escrow) public escrows;\n\n  modifier onlyOwner(){\n    require(msg.sender == owner);\n    _;\n  }\n\n  //events\n  event LogCreated(\n    bytes32 _hashed\n    );\n\n  // constructor for escrow\n  function EthyneEscrow() public{\n    owner = msg.sender;\n    overrideFees = 0;\n    isOverrideFees = false;\n  }\n\n  function createEscrow(\n    bytes16 _tradeID,\n    address _buyer,\n    uint256 _value\n    ) payable public {\n      address _seller = msg.sender;\n      bytes32 _hashed = keccak256(_tradeID, _seller, _buyer, _value);\n      require(msg.sender == _seller);\n      require(!escrows[_hashed]._isActive);\n      require(msg.value > 0 && msg.value == _value);\n\n      escrows[_hashed] = Escrow(\n        msg.sender,\n        _buyer,\n        _tradeID,\n        true,\n        _value\n      );\n\n      LogCreated(_hashed);\n  }\n\n  function release(\n    bytes16 _tradeID,\n    address _buyer,\n    uint256 _value\n    ) public {\n      bytes32 _hashed = keccak256(_tradeID, msg.sender, _buyer, _value);\n      require(escrows[_hashed]._isActive);\n      transferWithFees(escrows[_hashed]._buyer, escrows[_hashed]._value, ETHYNE_FEES);\n      escrows[_hashed]._isActive = false;\n      delete escrows[_hashed];\n    }\n\n  /* Seller cancelled the trade.\n  ** Condition:\n  ** Buyer must not confirm the transactino on ethyne.network yet.\n  ** 1) If seller willing to cancel BEFORE buyer confirm tx, then let him cancel.\n  ** 2) If seller willing to cancel AFTER buyer confirm tx, then relay is needed.\n  ** Aftermath:\n  ** 1) The trade must be cancelled and remove the trade out of array.\n  ** 2) If the function called by relayer, the trade must be removed.\n  */\n  function sellerCancelTrade(\n    bytes16 _tradeID,\n    address _seller,\n    address _buyer,\n    uint256 _value,\n    uint8 _stage\n    ) public {\n      bytes32 _hashed = keccak256(_tradeID, _seller, _buyer, _value);\n      require(escrows[_hashed]._isActive);\n      if(_stage == STAGE_SELLER_CREATE_ESCROW) {\n        require(_stage == STAGE_SELLER_CREATE_ESCROW);\n        require(escrows[_hashed]._seller == msg.sender);\n        escrows[_hashed]._isActive = false;\n        delete escrows[_hashed];\n      } else {\n        require(_stage == STAGE_BUYER_CONFIRM_TX);\n        require(msg.sender == relayer);\n        escrows[_hashed]._isActive = false;\n        delete escrows[_hashed];\n      }\n      transferWithFees(_seller, _value, ETHYNE_FEES);\n  }\n\n  /* Buyer cancel the trade.\n  ** Condition:\n  ** The trade must be at the STAGE_SELLER_CREATE_ESCROW only.\n  ** Only buyer can called this function\n  ** Aftermath:\n  ** Return ETH back to seller.\n  ** Remove the trade out of array.\n  */\n  function buyerCancelTrade(\n    bytes16 _tradeID,\n    address _seller,\n    address _buyer,\n    uint256 _value,\n    uint8 _stage\n    ) public {\n      bytes32 _hashed = keccak256(_tradeID, _seller, _buyer, _value);\n      require(escrows[_hashed]._isActive);\n      if(_stage == STAGE_SELLER_CREATE_ESCROW) {\n        require(_stage == STAGE_SELLER_CREATE_ESCROW);\n        require(escrows[_hashed]._buyer == msg.sender);\n        escrows[_hashed]._isActive = false;\n        delete escrows[_hashed];\n      } else {\n        require(_stage == STAGE_BUYER_CONFIRM_TX);\n        require(msg.sender == relayer);\n        escrows[_hashed]._isActive = false;\n        delete escrows[_hashed];\n      }\n      transferWithFees(_seller, _value, ETHYNE_FEES);\n  }\n\n  function transferWithFees(address _to, uint256 _value, uint _fees) private {\n      uint256 _finalFees = 0;\n      if(!isOverrideFees){\n        _finalFees = _value.mul(_fees).div(10000);\n        require(_value.sub(_finalFees) < _value); // prevent overflow/underflow\n      } else {\n        _finalFees = overrideFees;\n      }\n      ethyneCollectedFees = _finalFees.add(ethyneCollectedFees);\n      _to.transfer(_value.sub(_finalFees));\n  }\n\n  // :=== the functions below this line will be related to the company ===:\n\n  function setOwner(address _newOwner) onlyOwner external {\n    //Change the owner of the contract\n    //Can be called by owner only\n    owner = _newOwner;\n  }\n\n  // withdraw the revenue from trading to specific account\n  function getRevenue() onlyOwner view external returns(uint256) {\n    return ethyneCollectedFees;\n  }\n\n  function withdrawRevenue(address _to, uint256 _amount) onlyOwner external {\n    require(_amount < ethyneCollectedFees);\n    ethyneCollectedFees = ethyneCollectedFees.sub(_amount);\n    _to.transfer(_amount);\n  }\n\n  // Change the overrideFees when we have a promo/or in beta test\n  // override fees will not be ever over ETHYNE_FEES\n  function setOverrideFees(uint16 _newOverrideFees) onlyOwner external {\n    require(ETHYNE_FEES > _newOverrideFees);\n    overrideFees = _newOverrideFees;\n  }\n\n}\n",
  "sourcePath": "/Users/adirut/Ethyne/ethyne-sol/contracts/EthyneEscrow.sol",
  "compiler": {
    "name": "solc",
    "version": "0.4.18+commit.9cf6e910.Emscripten.clang"
  },
  "schemaVersion": "1.0.1",
  "updatedAt": "2018-05-08T04:25:23.221Z"
}