{
  "contractName": "EthyneEscrow",
  "abi": [
    {
      "constant": false,
      "inputs": [
        {
          "name": "_newOverrideFees",
          "type": "uint16"
        }
      ],
      "name": "setOverrideFees",
      "outputs": [],
      "payable": false,
      "stateMutability": "nonpayable",
      "type": "function"
    },
    {
      "constant": false,
      "inputs": [
        {
          "name": "_newOwner",
          "type": "address"
        }
      ],
      "name": "setOwner",
      "outputs": [],
      "payable": false,
      "stateMutability": "nonpayable",
      "type": "function"
    },
    {
      "constant": false,
      "inputs": [
        {
          "name": "_tradeID",
          "type": "bytes16"
        },
        {
          "name": "_buyer",
          "type": "address"
        },
        {
          "name": "_value",
          "type": "uint256"
        }
      ],
      "name": "createEscrow",
      "outputs": [],
      "payable": true,
      "stateMutability": "payable",
      "type": "function"
    },
    {
      "constant": true,
      "inputs": [],
      "name": "overrideFees",
      "outputs": [
        {
          "name": "",
          "type": "uint256"
        }
      ],
      "payable": false,
      "stateMutability": "view",
      "type": "function"
    },
    {
      "constant": true,
      "inputs": [
        {
          "name": "",
          "type": "bytes32"
        }
      ],
      "name": "escrows",
      "outputs": [
        {
          "name": "_seller",
          "type": "address"
        },
        {
          "name": "_buyer",
          "type": "address"
        },
        {
          "name": "_tradeID",
          "type": "bytes16"
        },
        {
          "name": "_isActive",
          "type": "bool"
        },
        {
          "name": "_value",
          "type": "uint256"
        },
        {
          "name": "_stage",
          "type": "uint8"
        }
      ],
      "payable": false,
      "stateMutability": "view",
      "type": "function"
    },
    {
      "constant": true,
      "inputs": [],
      "name": "isOverrideFees",
      "outputs": [
        {
          "name": "",
          "type": "bool"
        }
      ],
      "payable": false,
      "stateMutability": "view",
      "type": "function"
    },
    {
      "constant": true,
      "inputs": [],
      "name": "getRevenue",
      "outputs": [
        {
          "name": "",
          "type": "uint256"
        }
      ],
      "payable": false,
      "stateMutability": "view",
      "type": "function"
    },
    {
      "constant": false,
      "inputs": [
        {
          "name": "_tradeID",
          "type": "bytes16"
        },
        {
          "name": "_seller",
          "type": "address"
        },
        {
          "name": "_buyer",
          "type": "address"
        },
        {
          "name": "_value",
          "type": "uint256"
        }
      ],
      "name": "buyerCancelTrade",
      "outputs": [],
      "payable": false,
      "stateMutability": "nonpayable",
      "type": "function"
    },
    {
      "constant": false,
      "inputs": [
        {
          "name": "_tradeID",
          "type": "bytes16"
        },
        {
          "name": "_seller",
          "type": "address"
        },
        {
          "name": "_buyer",
          "type": "address"
        },
        {
          "name": "_value",
          "type": "uint256"
        }
      ],
      "name": "sellerCancelTrade",
      "outputs": [],
      "payable": false,
      "stateMutability": "nonpayable",
      "type": "function"
    },
    {
      "constant": false,
      "inputs": [
        {
          "name": "_tradeID",
          "type": "bytes16"
        },
        {
          "name": "_buyer",
          "type": "address"
        },
        {
          "name": "_value",
          "type": "uint256"
        }
      ],
      "name": "release",
      "outputs": [],
      "payable": false,
      "stateMutability": "nonpayable",
      "type": "function"
    },
    {
      "constant": true,
      "inputs": [],
      "name": "relayer",
      "outputs": [
        {
          "name": "",
          "type": "address"
        }
      ],
      "payable": false,
      "stateMutability": "view",
      "type": "function"
    },
    {
      "constant": false,
      "inputs": [
        {
          "name": "_to",
          "type": "address"
        },
        {
          "name": "_amount",
          "type": "uint256"
        }
      ],
      "name": "withdrawRevenue",
      "outputs": [],
      "payable": false,
      "stateMutability": "nonpayable",
      "type": "function"
    },
    {
      "constant": true,
      "inputs": [],
      "name": "owner",
      "outputs": [
        {
          "name": "",
          "type": "address"
        }
      ],
      "payable": false,
      "stateMutability": "view",
      "type": "function"
    },
    {
      "constant": true,
      "inputs": [],
      "name": "ethyneCollectedFees",
      "outputs": [
        {
          "name": "",
          "type": "uint256"
        }
      ],
      "payable": false,
      "stateMutability": "view",
      "type": "function"
    },
    {
      "constant": false,
      "inputs": [
        {
          "name": "_tradeID",
          "type": "bytes16"
        },
        {
          "name": "_buyer",
          "type": "address"
        },
        {
          "name": "_value",
          "type": "uint256"
        }
      ],
      "name": "buyerConfirmTx",
      "outputs": [],
      "payable": false,
      "stateMutability": "nonpayable",
      "type": "function"
    },
    {
      "inputs": [],
      "payable": false,
      "stateMutability": "nonpayable",
      "type": "constructor"
    },
    {
      "anonymous": false,
      "inputs": [
        {
          "indexed": false,
          "name": "_hashed",
          "type": "bytes32"
        }
      ],
      "name": "LogCreated",
      "type": "event"
    }
  ],
  "bytecode": "0x6060604052341561000f57600080fd5b336000806101000a81548173ffffffffffffffffffffffffffffffffffffffff021916908373ffffffffffffffffffffffffffffffffffffffff16021790555060006004819055506000600360006101000a81548160ff021916908315150217905550611ac4806100816000396000f3006060604052600436106100db576000357c0100000000000000000000000000000000000000000000000000000000900463ffffffff16806307ce467d146100e057806313af40351461010757806314853e9e146101405780631f7ca38a146101935780632d83549c146101bc57806344740527146102a257806348d7d9eb146102cf57806350c52c99146102f8578063529cc701146103755780636bc1c605146103f25780638406c079146104505780638b63c267146104a55780638da5cb5b146104e75780639dfa5a251461053c578063c466879a14610565575b600080fd5b34156100eb57600080fd5b610105600480803561ffff169060200190919050506105c3565b005b341561011257600080fd5b61013e600480803573ffffffffffffffffffffffffffffffffffffffff1690602001909190505061063f565b005b61019160048080356fffffffffffffffffffffffffffffffff191690602001909190803573ffffffffffffffffffffffffffffffffffffffff169060200190919080359060200190919050506106dd565b005b341561019e57600080fd5b6101a6610a2d565b6040518082815260200191505060405180910390f35b34156101c757600080fd5b6101e1600480803560001916906020019091905050610a33565b604051808773ffffffffffffffffffffffffffffffffffffffff1673ffffffffffffffffffffffffffffffffffffffff1681526020018673ffffffffffffffffffffffffffffffffffffffff1673ffffffffffffffffffffffffffffffffffffffff168152602001856fffffffffffffffffffffffffffffffff19166fffffffffffffffffffffffffffffffff19168152602001841515151581526020018381526020018260ff1660ff168152602001965050505050505060405180910390f35b34156102ad57600080fd5b6102b5610ae6565b604051808215151515815260200191505060405180910390f35b34156102da57600080fd5b6102e2610af9565b6040518082815260200191505060405180910390f35b341561030357600080fd5b61037360048080356fffffffffffffffffffffffffffffffff191690602001909190803573ffffffffffffffffffffffffffffffffffffffff1690602001909190803573ffffffffffffffffffffffffffffffffffffffff16906020019091908035906020019091905050610b5e565b005b341561038057600080fd5b6103f060048080356fffffffffffffffffffffffffffffffff191690602001909190803573ffffffffffffffffffffffffffffffffffffffff1690602001909190803573ffffffffffffffffffffffffffffffffffffffff16906020019091908035906020019091905050610ff6565b005b34156103fd57600080fd5b61044e60048080356fffffffffffffffffffffffffffffffff191690602001909190803573ffffffffffffffffffffffffffffffffffffffff1690602001909190803590602001909190505061148e565b005b341561045b57600080fd5b6104636116f7565b604051808273ffffffffffffffffffffffffffffffffffffffff1673ffffffffffffffffffffffffffffffffffffffff16815260200191505060405180910390f35b34156104b057600080fd5b6104e5600480803573ffffffffffffffffffffffffffffffffffffffff1690602001909190803590602001909190505061171d565b005b34156104f257600080fd5b6104fa6117d7565b604051808273ffffffffffffffffffffffffffffffffffffffff1673ffffffffffffffffffffffffffffffffffffffff16815260200191505060405180910390f35b341561054757600080fd5b61054f6117fc565b6040518082815260200191505060405180910390f35b341561057057600080fd5b6105c160048080356fffffffffffffffffffffffffffffffff191690602001909190803573ffffffffffffffffffffffffffffffffffffffff16906020019091908035906020019091905050611802565b005b6000809054906101000a900473ffffffffffffffffffffffffffffffffffffffff1673ffffffffffffffffffffffffffffffffffffffff163373ffffffffffffffffffffffffffffffffffffffff1614151561061e57600080fd5b8061ffff16600a11151561063157600080fd5b8061ffff1660048190555050565b6000809054906101000a900473ffffffffffffffffffffffffffffffffffffffff1673ffffffffffffffffffffffffffffffffffffffff163373ffffffffffffffffffffffffffffffffffffffff1614151561069a57600080fd5b806000806101000a81548173ffffffffffffffffffffffffffffffffffffffff021916908373ffffffffffffffffffffffffffffffffffffffff16021790555050565b6000803391508482858560405180856fffffffffffffffffffffffffffffffff19166fffffffffffffffffffffffffffffffff191681526010018473ffffffffffffffffffffffffffffffffffffffff1673ffffffffffffffffffffffffffffffffffffffff166c010000000000000000000000000281526014018373ffffffffffffffffffffffffffffffffffffffff1673ffffffffffffffffffffffffffffffffffffffff166c01000000000000000000000000028152601401828152602001945050505050604051809103902090508173ffffffffffffffffffffffffffffffffffffffff163373ffffffffffffffffffffffffffffffffffffffff161415156107e957600080fd5b60056000826000191660001916815260200190815260200160002060020160109054906101000a900460ff1615151561082157600080fd5b60003411801561083057508234145b151561083b57600080fd5b60c0604051908101604052803373ffffffffffffffffffffffffffffffffffffffff1681526020018573ffffffffffffffffffffffffffffffffffffffff168152602001866fffffffffffffffffffffffffffffffff19168152602001600115158152602001848152602001600160ff1681525060056000836000191660001916815260200190815260200160002060008201518160000160006101000a81548173ffffffffffffffffffffffffffffffffffffffff021916908373ffffffffffffffffffffffffffffffffffffffff16021790555060208201518160010160006101000a81548173ffffffffffffffffffffffffffffffffffffffff021916908373ffffffffffffffffffffffffffffffffffffffff16021790555060408201518160020160006101000a8154816fffffffffffffffffffffffffffffffff02191690837001000000000000000000000000000000009004021790555060608201518160020160106101000a81548160ff0219169083151502179055506080820151816003015560a08201518160040160006101000a81548160ff021916908360ff1602179055509050507f7f08a852757d36a52fdb8382e7aae098921e16ed1b9580b956b8c25db512ee5d8160405180826000191660001916815260200191505060405180910390a15050505050565b60045481565b60056020528060005260406000206000915090508060000160009054906101000a900473ffffffffffffffffffffffffffffffffffffffff16908060010160009054906101000a900473ffffffffffffffffffffffffffffffffffffffff16908060020160009054906101000a900470010000000000000000000000000000000002908060020160109054906101000a900460ff16908060030154908060040160009054906101000a900460ff16905086565b600360009054906101000a900460ff1681565b60008060009054906101000a900473ffffffffffffffffffffffffffffffffffffffff1673ffffffffffffffffffffffffffffffffffffffff163373ffffffffffffffffffffffffffffffffffffffff16141515610b5657600080fd5b600254905090565b60008484848460405180856fffffffffffffffffffffffffffffffff19166fffffffffffffffffffffffffffffffff191681526010018473ffffffffffffffffffffffffffffffffffffffff1673ffffffffffffffffffffffffffffffffffffffff166c010000000000000000000000000281526014018373ffffffffffffffffffffffffffffffffffffffff1673ffffffffffffffffffffffffffffffffffffffff166c010000000000000000000000000281526014018281526020019450505050506040518091039020905060056000826000191660001916815260200190815260200160002060020160109054906101000a900460ff161515610c6357600080fd5b600160ff1660056000836000191660001916815260200190815260200160002060040160009054906101000a900460ff1660ff161415610e5057600160ff1660056000836000191660001916815260200190815260200160002060040160009054906101000a900460ff1660ff16141515610cdd57600080fd5b3373ffffffffffffffffffffffffffffffffffffffff1660056000836000191660001916815260200190815260200160002060010160009054906101000a900473ffffffffffffffffffffffffffffffffffffffff1673ffffffffffffffffffffffffffffffffffffffff16141515610d5557600080fd5b600060056000836000191660001916815260200190815260200160002060020160106101000a81548160ff021916908315150217905550600560008260001916600019168152602001908152602001600020600080820160006101000a81549073ffffffffffffffffffffffffffffffffffffffff02191690556001820160006101000a81549073ffffffffffffffffffffffffffffffffffffffff02191690556002820160006101000a8154906fffffffffffffffffffffffffffffffff02191690556002820160106101000a81549060ff021916905560038201600090556004820160006101000a81549060ff02191690555050610fe3565b600260ff1660056000836000191660001916815260200190815260200160002060040160009054906101000a900460ff1660ff16141515610e9057600080fd5b600160009054906101000a900473ffffffffffffffffffffffffffffffffffffffff1673ffffffffffffffffffffffffffffffffffffffff163373ffffffffffffffffffffffffffffffffffffffff16141515610eec57600080fd5b600060056000836000191660001916815260200190815260200160002060020160106101000a81548160ff021916908315150217905550600560008260001916600019168152602001908152602001600020600080820160006101000a81549073ffffffffffffffffffffffffffffffffffffffff02191690556001820160006101000a81549073ffffffffffffffffffffffffffffffffffffffff02191690556002820160006101000a8154906fffffffffffffffffffffffffffffffff02191690556002820160106101000a81549060ff021916905560038201600090556004820160006101000a81549060ff021916905550505b610fef8483600a6119fd565b5050505050565b60008484848460405180856fffffffffffffffffffffffffffffffff19166fffffffffffffffffffffffffffffffff191681526010018473ffffffffffffffffffffffffffffffffffffffff1673ffffffffffffffffffffffffffffffffffffffff166c010000000000000000000000000281526014018373ffffffffffffffffffffffffffffffffffffffff1673ffffffffffffffffffffffffffffffffffffffff166c010000000000000000000000000281526014018281526020019450505050506040518091039020905060056000826000191660001916815260200190815260200160002060020160109054906101000a900460ff1615156110fb57600080fd5b600160ff1660056000836000191660001916815260200190815260200160002060040160009054906101000a900460ff1660ff1614156112e857600160ff1660056000836000191660001916815260200190815260200160002060040160009054906101000a900460ff1660ff1614151561117557600080fd5b3373ffffffffffffffffffffffffffffffffffffffff1660056000836000191660001916815260200190815260200160002060000160009054906101000a900473ffffffffffffffffffffffffffffffffffffffff1673ffffffffffffffffffffffffffffffffffffffff161415156111ed57600080fd5b600060056000836000191660001916815260200190815260200160002060020160106101000a81548160ff021916908315150217905550600560008260001916600019168152602001908152602001600020600080820160006101000a81549073ffffffffffffffffffffffffffffffffffffffff02191690556001820160006101000a81549073ffffffffffffffffffffffffffffffffffffffff02191690556002820160006101000a8154906fffffffffffffffffffffffffffffffff02191690556002820160106101000a81549060ff021916905560038201600090556004820160006101000a81549060ff0219169055505061147b565b600260ff1660056000836000191660001916815260200190815260200160002060040160009054906101000a900460ff1660ff1614151561132857600080fd5b600160009054906101000a900473ffffffffffffffffffffffffffffffffffffffff1673ffffffffffffffffffffffffffffffffffffffff163373ffffffffffffffffffffffffffffffffffffffff1614151561138457600080fd5b600060056000836000191660001916815260200190815260200160002060020160106101000a81548160ff021916908315150217905550600560008260001916600019168152602001908152602001600020600080820160006101000a81549073ffffffffffffffffffffffffffffffffffffffff02191690556001820160006101000a81549073ffffffffffffffffffffffffffffffffffffffff02191690556002820160006101000a8154906fffffffffffffffffffffffffffffffff02191690556002820160106101000a81549060ff021916905560038201600090556004820160006101000a81549060ff021916905550505b6114878483600a6119fd565b5050505050565b60008333848460405180856fffffffffffffffffffffffffffffffff19166fffffffffffffffffffffffffffffffff191681526010018473ffffffffffffffffffffffffffffffffffffffff1673ffffffffffffffffffffffffffffffffffffffff166c010000000000000000000000000281526014018373ffffffffffffffffffffffffffffffffffffffff1673ffffffffffffffffffffffffffffffffffffffff166c010000000000000000000000000281526014018281526020019450505050506040518091039020905060056000826000191660001916815260200190815260200160002060020160109054906101000a900460ff16151561159357600080fd5b6115fb60056000836000191660001916815260200190815260200160002060010160009054906101000a900473ffffffffffffffffffffffffffffffffffffffff1660056000846000191660001916815260200190815260200160002060030154600a6119fd565b600060056000836000191660001916815260200190815260200160002060020160106101000a81548160ff021916908315150217905550600560008260001916600019168152602001908152602001600020600080820160006101000a81549073ffffffffffffffffffffffffffffffffffffffff02191690556001820160006101000a81549073ffffffffffffffffffffffffffffffffffffffff02191690556002820160006101000a8154906fffffffffffffffffffffffffffffffff02191690556002820160106101000a81549060ff021916905560038201600090556004820160006101000a81549060ff0219169055505050505050565b600160009054906101000a900473ffffffffffffffffffffffffffffffffffffffff1681565b6000809054906101000a900473ffffffffffffffffffffffffffffffffffffffff1673ffffffffffffffffffffffffffffffffffffffff163373ffffffffffffffffffffffffffffffffffffffff1614151561177857600080fd5b6002548110151561178857600080fd5b80600254036002819055508173ffffffffffffffffffffffffffffffffffffffff166108fc829081150290604051600060405180830381858888f1935050505015156117d357600080fd5b5050565b6000809054906101000a900473ffffffffffffffffffffffffffffffffffffffff1681565b60025481565b60008333848460405180856fffffffffffffffffffffffffffffffff19166fffffffffffffffffffffffffffffffff191681526010018473ffffffffffffffffffffffffffffffffffffffff1673ffffffffffffffffffffffffffffffffffffffff166c010000000000000000000000000281526014018373ffffffffffffffffffffffffffffffffffffffff1673ffffffffffffffffffffffffffffffffffffffff166c010000000000000000000000000281526014018281526020019450505050506040518091039020905060056000826000191660001916815260200190815260200160002060020160109054906101000a900460ff16151561190757600080fd5b3373ffffffffffffffffffffffffffffffffffffffff1660056000836000191660001916815260200190815260200160002060010160009054906101000a900473ffffffffffffffffffffffffffffffffffffffff1673ffffffffffffffffffffffffffffffffffffffff1614151561197f57600080fd5b600160ff1660056000836000191660001916815260200190815260200160002060040160009054906101000a900460ff1660ff161415156119bf57600080fd5b600260056000836000191660001916815260200190815260200160002060040160006101000a81548160ff021916908360ff16021790555050505050565b6000809050600360009054906101000a900460ff161515611a3f57612710828402811515611a2757fe5b04905082818403101515611a3a57600080fd5b611a45565b60045490505b60025481016002819055508373ffffffffffffffffffffffffffffffffffffffff166108fc8285039081150290604051600060405180830381858888f193505050501515611a9257600080fd5b505050505600a165627a7a7230582095fba35bfdb1a66e38c41dd7a2d9b7bed26305db5246c9b0055a533a686783d50029",
  "source": "pragma solidity ^0.4.18;\n\ncontract EthyneEscrow{\n  address public owner;\n  address public relayer;\n  uint256 public ethyneCollectedFees;\n  bool public  isOverrideFees;\n  uint public overrideFees;\n\n  uint constant ETHYNE_FEES = 10;\n  uint8 constant STAGE_SELLER_CREATE_ESCROW = 0x01;\n  uint8 constant STAGE_BUYER_CONFIRM_TX = 0x02;\n\n  struct Escrow {\n    address _seller;\n    address _buyer;\n    bytes16 _tradeID;\n    bool _isActive;\n    uint _value;\n    uint8 _stage;\n  }\n\n  mapping (bytes32 => Escrow) public escrows;\n\n  modifier onlyOwner(){\n    require(msg.sender == owner);\n    _;\n  }\n\n  //events\n  event LogCreated(\n    bytes32 _hashed\n    );\n\n  // constructor for escrow\n  function EthyneEscrow() public{\n    owner = msg.sender;\n    overrideFees = 0;\n    isOverrideFees = false;\n  }\n\n  function createEscrow(\n    bytes16 _tradeID,\n    address _buyer,\n    uint256 _value\n    ) payable public {\n      address _seller = msg.sender;\n      bytes32 _hashed = keccak256(_tradeID, _seller, _buyer, _value);\n      require(msg.sender == _seller);\n      require(!escrows[_hashed]._isActive);\n      require(msg.value > 0 && msg.value == _value);\n\n      escrows[_hashed] = Escrow(\n        msg.sender,\n        _buyer,\n        _tradeID,\n        true,\n        _value,\n        STAGE_SELLER_CREATE_ESCROW\n      );\n\n      LogCreated(_hashed);\n  }\n\n  function release(\n    bytes16 _tradeID,\n    address _buyer,\n    uint256 _value\n    ) public {\n      bytes32 _hashed = keccak256(_tradeID, msg.sender, _buyer, _value);\n      require(escrows[_hashed]._isActive);\n      transferWithFees(escrows[_hashed]._buyer, escrows[_hashed]._value, ETHYNE_FEES);\n      escrows[_hashed]._isActive = false;\n      delete escrows[_hashed];\n    }\n\n  /* Seller cancelled the trade.\n  ** Condition:\n  ** Buyer must not confirm the transactino on ethyne.network yet.\n  ** 1) If seller willing to cancel BEFORE buyer confirm tx, then let him cancel.\n  ** 2) If seller willing to cancel AFTER buyer confirm tx, then relay is needed.\n  ** Aftermath:\n  ** 1) The trade must be cancelled and remove the trade out of array.\n  ** 2) If the function called by relayer, the trade must be removed.\n  */\n  function sellerCancelTrade(\n    bytes16 _tradeID,\n    address _seller,\n    address _buyer,\n    uint256 _value\n    ) public {\n      bytes32 _hashed = keccak256(_tradeID, _seller, _buyer, _value);\n      require(escrows[_hashed]._isActive);\n      if(escrows[_hashed]._stage == STAGE_SELLER_CREATE_ESCROW) {\n        require(escrows[_hashed]._stage == STAGE_SELLER_CREATE_ESCROW);\n        require(escrows[_hashed]._seller == msg.sender);\n        escrows[_hashed]._isActive = false;\n        delete escrows[_hashed];\n      } else {\n        require(escrows[_hashed]._stage == STAGE_BUYER_CONFIRM_TX);\n        require(msg.sender == relayer);\n        escrows[_hashed]._isActive = false;\n        delete escrows[_hashed];\n      }\n      transferWithFees(_seller, _value, ETHYNE_FEES);\n  }\n\n  /* Confirm that buyer already transfer fiat to the seller.\n  ** Condition:\n  ** The trade must be at the STAGE_SELLER_CREATE_ESCROW only.\n  ** Only buyer can confirm the transaction.\n  ** Aftermath:\n  ** The stage of the trade must be updated.\n  */\n  function buyerConfirmTx(\n    bytes16 _tradeID,\n    address _buyer,\n    uint256 _value\n    ) public {\n      bytes32 _hashed = keccak256(_tradeID, msg.sender, _buyer, _value);\n      require(escrows[_hashed]._isActive);\n      require(escrows[_hashed]._buyer == msg.sender);\n      require(escrows[_hashed]._stage == STAGE_SELLER_CREATE_ESCROW);\n      escrows[_hashed]._stage = STAGE_BUYER_CONFIRM_TX;\n  }\n\n  /* Buyer cancel the trade.\n  ** Condition:\n  ** The trade must be at the STAGE_SELLER_CREATE_ESCROW only.\n  ** Only buyer can called this function\n  ** Aftermath:\n  ** Return ETH back to seller.\n  ** Remove the trade out of array.\n  */\n  function buyerCancelTrade(\n    bytes16 _tradeID,\n    address _seller,\n    address _buyer,\n    uint256 _value\n    ) public {\n      bytes32 _hashed = keccak256(_tradeID, _seller, _buyer, _value);\n      require(escrows[_hashed]._isActive);\n      if(escrows[_hashed]._stage == STAGE_SELLER_CREATE_ESCROW) {\n        require(escrows[_hashed]._stage == STAGE_SELLER_CREATE_ESCROW);\n        require(escrows[_hashed]._buyer == msg.sender);\n        escrows[_hashed]._isActive = false;\n        delete escrows[_hashed];\n      } else {\n        require(escrows[_hashed]._stage == STAGE_BUYER_CONFIRM_TX);\n        require(msg.sender == relayer);\n        escrows[_hashed]._isActive = false;\n        delete escrows[_hashed];\n      }\n      transferWithFees(_seller, _value, ETHYNE_FEES);\n  }\n\n  function transferWithFees(address _to, uint256 _value, uint _fees) private {\n      uint256 _finalFees = 0;\n      if(!isOverrideFees){\n        _finalFees = (_value * _fees/10000);\n        require(_value - _finalFees < _value); // prevent overflow/underflow\n      } else {\n        _finalFees = overrideFees;\n      }\n      ethyneCollectedFees = _finalFees + ethyneCollectedFees;\n      _to.transfer(_value - _finalFees);\n  }\n\n  // :=== the functions below this line will be related to the company ===:\n\n  function setOwner(address _newOwner) onlyOwner external {\n    //Change the owner of the contract\n    //Can be called by owner only\n    owner = _newOwner;\n  }\n\n  // withdraw the revenue from trading to specific account\n  function getRevenue() onlyOwner view external returns(uint256) {\n    return ethyneCollectedFees;\n  }\n\n  function withdrawRevenue(address _to, uint256 _amount) onlyOwner external {\n    require(_amount < ethyneCollectedFees);\n    ethyneCollectedFees = ethyneCollectedFees - _amount;\n    _to.transfer(_amount);\n  }\n\n  // Change the overrideFees when we have a promo/or in beta test\n  // override fees will not be ever over ETHYNE_FEES\n  function setOverrideFees(uint16 _newOverrideFees) onlyOwner external {\n    require(ETHYNE_FEES > _newOverrideFees);\n    overrideFees = _newOverrideFees;\n  }\n\n}\n",
  "sourcePath": "/Users/adirut/Ethyne/ethyne-sol/contracts/EthyneEscrow.sol",
  "compiler": {
    "name": "solc",
    "version": "0.4.18+commit.9cf6e910.Emscripten.clang"
  },
  "schemaVersion": "1.0.1",
  "updatedAt": "2018-05-02T14:57:46.431Z"
}